{
  "_format": "hh-sol-artifact-1",
  "contractName": "AcademicRegistry",
  "sourceName": "contracts/AcademicRegistry.sol",
  "abi": [
    {
      "inputs": [],
      "stateMutability": "nonpayable",
      "type": "constructor"
    },
    {
      "inputs": [
        {
          "internalType": "address",
          "name": "owner",
          "type": "address"
        }
      ],
      "name": "OwnableInvalidOwner",
      "type": "error"
    },
    {
      "inputs": [
        {
          "internalType": "address",
          "name": "account",
          "type": "address"
        }
      ],
      "name": "OwnableUnauthorizedAccount",
      "type": "error"
    },
    {
      "anonymous": false,
      "inputs": [
        {
          "indexed": true,
          "internalType": "string",
          "name": "studentId",
          "type": "string"
        },
        {
          "indexed": false,
          "internalType": "uint256",
          "name": "timestamp",
          "type": "uint256"
        }
      ],
      "name": "DiplomaReactivated",
      "type": "event"
    },
    {
      "anonymous": false,
      "inputs": [
        {
          "indexed": true,
          "internalType": "string",
          "name": "studentId",
          "type": "string"
        },
        {
          "indexed": false,
          "internalType": "string",
          "name": "studentName",
          "type": "string"
        },
        {
          "indexed": false,
          "internalType": "string",
          "name": "course",
          "type": "string"
        },
        {
          "indexed": false,
          "internalType": "string",
          "name": "completionDate",
          "type": "string"
        },
        {
          "indexed": false,
          "internalType": "string",
          "name": "pdfHash",
          "type": "string"
        },
        {
          "indexed": false,
          "internalType": "uint256",
          "name": "timestamp",
          "type": "uint256"
        }
      ],
      "name": "DiplomaRegistered",
      "type": "event"
    },
    {
      "anonymous": false,
      "inputs": [
        {
          "indexed": true,
          "internalType": "string",
          "name": "studentId",
          "type": "string"
        },
        {
          "indexed": false,
          "internalType": "uint256",
          "name": "timestamp",
          "type": "uint256"
        }
      ],
      "name": "DiplomaRevoked",
      "type": "event"
    },
    {
      "anonymous": false,
      "inputs": [
        {
          "indexed": true,
          "internalType": "address",
          "name": "previousOwner",
          "type": "address"
        },
        {
          "indexed": true,
          "internalType": "address",
          "name": "newOwner",
          "type": "address"
        }
      ],
      "name": "OwnershipTransferred",
      "type": "event"
    },
    {
      "inputs": [
        {
          "internalType": "string",
          "name": "_studentId",
          "type": "string"
        }
      ],
      "name": "diplomaRegistered",
      "outputs": [
        {
          "internalType": "bool",
          "name": "",
          "type": "bool"
        }
      ],
      "stateMutability": "view",
      "type": "function"
    },
    {
      "inputs": [
        {
          "internalType": "string",
          "name": "_studentId",
          "type": "string"
        }
      ],
      "name": "getDiploma",
      "outputs": [
        {
          "internalType": "string",
          "name": "studentName",
          "type": "string"
        },
        {
          "internalType": "string",
          "name": "studentId",
          "type": "string"
        },
        {
          "internalType": "string",
          "name": "course",
          "type": "string"
        },
        {
          "internalType": "string",
          "name": "completionDate",
          "type": "string"
        },
        {
          "internalType": "string",
          "name": "pdfHash",
          "type": "string"
        },
        {
          "internalType": "uint256",
          "name": "registeredAt",
          "type": "uint256"
        },
        {
          "internalType": "bool",
          "name": "isValid",
          "type": "bool"
        }
      ],
      "stateMutability": "view",
      "type": "function"
    },
    {
      "inputs": [
        {
          "internalType": "string",
          "name": "_pdfHash",
          "type": "string"
        }
      ],
      "name": "getStudentIdByHash",
      "outputs": [
        {
          "internalType": "string",
          "name": "studentId",
          "type": "string"
        }
      ],
      "stateMutability": "view",
      "type": "function"
    },
    {
      "inputs": [
        {
          "internalType": "string",
          "name": "_studentId",
          "type": "string"
        }
      ],
      "name": "isDiplomaValid",
      "outputs": [
        {
          "internalType": "bool",
          "name": "",
          "type": "bool"
        }
      ],
      "stateMutability": "view",
      "type": "function"
    },
    {
      "inputs": [],
      "name": "owner",
      "outputs": [
        {
          "internalType": "address",
          "name": "",
          "type": "address"
        }
      ],
      "stateMutability": "view",
      "type": "function"
    },
    {
      "inputs": [
        {
          "internalType": "string",
          "name": "_studentId",
          "type": "string"
        }
      ],
      "name": "reactivateDiploma",
      "outputs": [],
      "stateMutability": "nonpayable",
      "type": "function"
    },
    {
      "inputs": [
        {
          "internalType": "string",
          "name": "_studentName",
          "type": "string"
        },
        {
          "internalType": "string",
          "name": "_studentId",
          "type": "string"
        },
        {
          "internalType": "string",
          "name": "_course",
          "type": "string"
        },
        {
          "internalType": "string",
          "name": "_completionDate",
          "type": "string"
        },
        {
          "internalType": "string",
          "name": "_pdfHash",
          "type": "string"
        }
      ],
      "name": "registerDiploma",
      "outputs": [],
      "stateMutability": "nonpayable",
      "type": "function"
    },
    {
      "inputs": [],
      "name": "renounceOwnership",
      "outputs": [],
      "stateMutability": "nonpayable",
      "type": "function"
    },
    {
      "inputs": [
        {
          "internalType": "string",
          "name": "_studentId",
          "type": "string"
        }
      ],
      "name": "revokeDiploma",
      "outputs": [],
      "stateMutability": "nonpayable",
      "type": "function"
    },
    {
      "inputs": [],
      "name": "totalDiplomas",
      "outputs": [
        {
          "internalType": "uint256",
          "name": "",
          "type": "uint256"
        }
      ],
      "stateMutability": "view",
      "type": "function"
    },
    {
      "inputs": [
        {
          "internalType": "address",
          "name": "newOwner",
          "type": "address"
        }
      ],
      "name": "transferOwnership",
      "outputs": [],
      "stateMutability": "nonpayable",
      "type": "function"
    }
  ],
  "bytecode": "0x608060405234801561001057600080fd5b50338061003757604051631e4fbdf760e01b81526000600482015260240160405180910390fd5b61004081610046565b50610096565b600080546001600160a01b038381166001600160a01b0319831681178455604051919092169283917f8be0079c531659141344cd1fd0a4f28419497f9722a3daafe3b4186f6b6457e09190a35050565b6113c0806100a56000396000f3fe608060405234801561001057600080fd5b50600436106100a95760003560e01c8063715018a611610071578063715018a614610135578063783be34c1461013d5780638da5cb5b146101545780639c88cd141461016f578063aa21a23814610195578063f2fde38b146101a857600080fd5b806312c799fc146100ae578063210d3c11146100d757806326465775146100ec5780636a7395a51461010f5780636b2ad10814610122575b600080fd5b6100c16100bc366004610f7d565b6101bb565b6040516100ce919061100a565b60405180910390f35b6100ea6100e5366004611024565b61026b565b005b6100ff6100fa366004610f7d565b6106ea565b60405190151581526020016100ce565b6100ea61011d366004610f7d565b610715565b6100ff610130366004610f7d565b610876565b6100ea6108cf565b61014660045481565b6040519081526020016100ce565b6000546040516001600160a01b0390911681526020016100ce565b61018261017d366004610f7d565b6108e3565b6040516100ce97969594939291906110f6565b6100ea6101a3366004610f7d565b610ccd565b6100ea6101b6366004611173565b610e1f565b60606003826040516101cd919061119c565b908152602001604051809103902080546101e6906111b8565b80601f0160208091040260200160405190810160405280929190818152602001828054610212906111b8565b801561025f5780601f106102345761010080835404028352916020019161025f565b820191906000526020600020905b81548152906001019060200180831161024257829003601f168201915b50505050509050919050565b610273610e5d565b60008551116102c95760405162461bcd60e51b815260206004820152601b60248201527f4e6f6d6520646f20616c756e6f2065206f6272696761746f72696f000000000060448201526064015b60405180910390fd5b60008451116103265760405162461bcd60e51b8152602060048201526024808201527f4964656e746966696361646f7220646f20616c756e6f2065206f6272696761746044820152636f72696f60e01b60648201526084016102c0565b60008351116103775760405162461bcd60e51b815260206004820152601b60248201527f4e6f6d6520646f20637572736f2065206f6272696761746f72696f000000000060448201526064016102c0565b60008251116103c85760405162461bcd60e51b815260206004820152601f60248201527f4461746120646520636f6e636c7573616f2065206f6272696761746f7269610060448201526064016102c0565b80516040146104345760405162461bcd60e51b815260206004820152603260248201527f48617368205348412d32353620696e76616c69646f202864657665207465722060448201527136342063617261637465726573206865782960701b60648201526084016102c0565b600284604051610444919061119c565b9081526040519081900360200190205460ff16156104ba5760405162461bcd60e51b815260206004820152602d60248201527f4469706c6f6d61206a61207265676973747261646f207061726120657374652060448201526c34b232b73a34b334b1b0b237b960991b60648201526084016102c0565b6003816040516104ca919061119c565b908152602001604051809103902080546104e3906111b8565b15905061053d5760405162461bcd60e51b815260206004820152602260248201527f45737465206861736820646520504446206a6120666f69207265676973747261604482015261646f60f01b60648201526084016102c0565b6040518060e0016040528086815260200185815260200184815260200183815260200182815260200142815260200160011515815250600185604051610583919061119c565b908152604051908190036020019020815181906105a09082611243565b50602082015160018201906105b59082611243565b50604082015160028201906105ca9082611243565b50606082015160038201906105df9082611243565b50608082015160048201906105f49082611243565b5060a0820151600582015560c0909101516006909101805460ff191691151591909117905560405160019060029061062d90879061119c565b908152604051908190036020018120805492151560ff1990931692909217909155849060039061065e90849061119c565b908152602001604051809103902090816106789190611243565b506004805490600061068983611303565b91905055508360405161069c919061119c565b60405180910390207fd9b9bf9eccc04d750468bb1d6ed8d11814e8e5699d0323d28e6b96602010c2e186858585426040516106db95949392919061132a565b60405180910390a25050505050565b60006002826040516106fc919061119c565b9081526040519081900360200190205460ff1692915050565b61071d610e5d565b60028160405161072d919061119c565b9081526040519081900360200190205460ff166107855760405162461bcd60e51b81526020600482015260166024820152754469706c6f6d61206e616f20656e636f6e747261646f60501b60448201526064016102c0565b600181604051610795919061119c565b9081526040519081900360200190206006015460ff166107f75760405162461bcd60e51b815260206004820152601860248201527f4469706c6f6d61206a612065737461207265766f6761646f000000000000000060448201526064016102c0565b6000600182604051610809919061119c565b908152604051908190036020018120600601805492151560ff199093169290921790915561083890829061119c565b604051908190038120428252907fab883b1b97287d995e192df67658ae448479d2518cd03505ef7408bc7e291fbf906020015b60405180910390a250565b6000600282604051610888919061119c565b9081526040519081900360200190205460ff1680156108c957506001826040516108b2919061119c565b9081526040519081900360200190206006015460ff165b92915050565b6108d7610e5d565b6108e16000610e8a565b565b60608060608060606000806002886040516108fe919061119c565b9081526040519081900360200190205460ff166109745760405162461bcd60e51b815260206004820152602e60248201527f4469706c6f6d61206e616f20656e636f6e747261646f2070617261206573746560448201526d1034b232b73a34b334b1b0b237b960911b60648201526084016102c0565b6000600189604051610986919061119c565b90815260200160405180910390206040518060e00160405290816000820180546109af906111b8565b80601f01602080910402602001604051908101604052809291908181526020018280546109db906111b8565b8015610a285780601f106109fd57610100808354040283529160200191610a28565b820191906000526020600020905b815481529060010190602001808311610a0b57829003601f168201915b50505050508152602001600182018054610a41906111b8565b80601f0160208091040260200160405190810160405280929190818152602001828054610a6d906111b8565b8015610aba5780601f10610a8f57610100808354040283529160200191610aba565b820191906000526020600020905b815481529060010190602001808311610a9d57829003601f168201915b50505050508152602001600282018054610ad3906111b8565b80601f0160208091040260200160405190810160405280929190818152602001828054610aff906111b8565b8015610b4c5780601f10610b2157610100808354040283529160200191610b4c565b820191906000526020600020905b815481529060010190602001808311610b2f57829003601f168201915b50505050508152602001600382018054610b65906111b8565b80601f0160208091040260200160405190810160405280929190818152602001828054610b91906111b8565b8015610bde5780601f10610bb357610100808354040283529160200191610bde565b820191906000526020600020905b815481529060010190602001808311610bc157829003601f168201915b50505050508152602001600482018054610bf7906111b8565b80601f0160208091040260200160405190810160405280929190818152602001828054610c23906111b8565b8015610c705780601f10610c4557610100808354040283529160200191610c70565b820191906000526020600020905b815481529060010190602001808311610c5357829003601f168201915b5050509183525050600582015460208083019190915260069092015460ff161515604091820152825191830151908301516060840151608085015160a086015160c090960151949f939e50919c509a509850919650945092505050565b610cd5610e5d565b600281604051610ce5919061119c565b9081526040519081900360200190205460ff16610d3d5760405162461bcd60e51b81526020600482015260166024820152754469706c6f6d61206e616f20656e636f6e747261646f60501b60448201526064016102c0565b600181604051610d4d919061119c565b9081526040519081900360200190206006015460ff1615610da85760405162461bcd60e51b81526020600482015260156024820152744469706c6f6d61206a61206573746120617469766f60581b60448201526064016102c0565b60018082604051610db9919061119c565b908152604051908190036020018120600601805492151560ff1990931692909217909155610de890829061119c565b604051908190038120428252907f92e3cffd00007d86014b343c83dbd6a11b54409c772cebed9e137fd7398cd5449060200161086b565b610e27610e5d565b6001600160a01b038116610e5157604051631e4fbdf760e01b8152600060048201526024016102c0565b610e5a81610e8a565b50565b6000546001600160a01b031633146108e15760405163118cdaa760e01b81523360048201526024016102c0565b600080546001600160a01b038381166001600160a01b0319831681178455604051919092169283917f8be0079c531659141344cd1fd0a4f28419497f9722a3daafe3b4186f6b6457e09190a35050565b634e487b7160e01b600052604160045260246000fd5b600082601f830112610f0157600080fd5b813567ffffffffffffffff80821115610f1c57610f1c610eda565b604051601f8301601f19908116603f01168101908282118183101715610f4457610f44610eda565b81604052838152866020858801011115610f5d57600080fd5b836020870160208301376000602085830101528094505050505092915050565b600060208284031215610f8f57600080fd5b813567ffffffffffffffff811115610fa657600080fd5b610fb284828501610ef0565b949350505050565b60005b83811015610fd5578181015183820152602001610fbd565b50506000910152565b60008151808452610ff6816020860160208601610fba565b601f01601f19169290920160200192915050565b60208152600061101d6020830184610fde565b9392505050565b600080600080600060a0868803121561103c57600080fd5b853567ffffffffffffffff8082111561105457600080fd5b61106089838a01610ef0565b9650602088013591508082111561107657600080fd5b61108289838a01610ef0565b9550604088013591508082111561109857600080fd5b6110a489838a01610ef0565b945060608801359150808211156110ba57600080fd5b6110c689838a01610ef0565b935060808801359150808211156110dc57600080fd5b506110e988828901610ef0565b9150509295509295909350565b60e08152600061110960e083018a610fde565b828103602084015261111b818a610fde565b9050828103604084015261112f8189610fde565b905082810360608401526111438188610fde565b905082810360808401526111578187610fde565b60a0840195909552505090151560c09091015295945050505050565b60006020828403121561118557600080fd5b81356001600160a01b038116811461101d57600080fd5b600082516111ae818460208701610fba565b9190910192915050565b600181811c908216806111cc57607f821691505b6020821081036111ec57634e487b7160e01b600052602260045260246000fd5b50919050565b601f82111561123e576000816000526020600020601f850160051c8101602086101561121b5750805b601f850160051c820191505b8181101561123a57828155600101611227565b5050505b505050565b815167ffffffffffffffff81111561125d5761125d610eda565b6112718161126b84546111b8565b846111f2565b602080601f8311600181146112a6576000841561128e5750858301515b600019600386901b1c1916600185901b17855561123a565b600085815260208120601f198616915b828110156112d5578886015182559484019460019091019084016112b6565b50858210156112f35787850151600019600388901b60f8161c191681555b5050505050600190811b01905550565b60006001820161132357634e487b7160e01b600052601160045260246000fd5b5060010190565b60a08152600061133d60a0830188610fde565b828103602084015261134f8188610fde565b905082810360408401526113638187610fde565b905082810360608401526113778186610fde565b915050826080830152969550505050505056fea26469706673582212202d20dc47738d3fe2af5f4914771d805d3a4e6ac417ea53bf76cfb389a058cc8d64736f6c63430008180033",
  "linkReferences": {},
  "deployedLinkReferences": {}
}